:02000004080AE8
:1000000000000A0830100A0800000400060005017C
:0800100004020F0000000000D3
:10001800C00E0A0809480A4908B5884205D0094AA5
:10002800824202D0121A00F023FF0748074A002133
:10003800121A00F028FF064808BD00BF0003002080
:1000480004100A0804030020040300204C050020C3
:100058004C05002070B500F097FD074B074C1E4675
:10006800E41AA4080025A54204D056F8253098477C
:100078000135F8E770BD00BFA40F0A0800100A0890
:1000880000F088B808B500F08BF8BDE8084000F02B
:1000980065BD00F051B90078B0FA80F040097047AA
:1000A800012303707047704708B500F059FC4FF4FE
:1000B800165100F051FC012008BD012070470000D6
:1000C80030B5144699B068460A2200F05DFB0A2252
:1000D800214604A81D4C00F057FB10A81C4900F04D
:1000E80015FB21460CA800F011FB0CA910A800F084
:1000F80075FB694600F072FB0546214614A800F01E
:1001080005FB14A9284600F069FB04A900F066FB6A
:10011800014608A800F01CFB14A800F0B5FA0CA8CA
:1001280000F0B2FA10A800F0AFFA00F019FC089934
:1001380000F013FA08A800F0A7FA04A800F0A4FA3F
:10014800684600F0A1FA012019B030BDD60E0A08A1
:10015800D40E0A0808B5094B002209491A70012370
:100168000B7008490A70084A1370084B02221A706B
:1001780000F05AF8064B186008BD00BF0B030020BA
:1001880010030020090300200A03002008030020B0
:100198000C0300200148FFF787BF00BF13030020AE
:1001A80010B5054C2046FFF788FF2046BDE81040F3
:1001B80011210122FFF784BF1303002008B50B4B60
:1001C80000220B491A7001230B700A490A700A4A67
:1001D80013700A4B02221A7000F026F8084B1860B8
:1001E800BDE808400748FFF75EBF00BF15030020C1
:1001F8001C03002012030020140300201103002018
:10020800180300201303002008B5024B1B685B6825
:10021800019308BD9C01060808B5024B1B685B6981
:10022800019308BD9C01060808B5024B1B681B68B2
:10023800019308BDB001060808B5024B1B68DB69CD
:10024800019308BDB401060808B5024B1B685B683A
:10025800019308BDC401060808B5024B1B689B68DA
:10026800019308BDC401060808B5024B1B68DB688A
:10027800019308BDC401060808B5024B1B689B69B9
:10028800019308BDC401060808B5024B1B685B6AE8
:10029800019308BDC401060808B5024B1B689B6A98
:1002A800019308BDC401060808B5024B1B68DB6A48
:1002B800019308BDC401060808B5024B1B681B6BF7
:1002C800019308BDC401060808B5024B1B685B6BA7
:1002D800019308BDC401060808B5024B1B681B6CD6
:1002E800019308BDC401060808B5024B1B685B6C86
:1002F800019308BDC401060808B5024B1B689B6C36
:10030800019308BDC401060808B5024B1B68DB6CE5
:10031800019308BDC401060808B5024B1B685B6859
:10032800019308BDA401060808B5024B1B681B69A8
:10033800019308BDC801060808B5024B1B685B6835
:10034800019308BDA001060808B5024B1B689B680D
:10035800019308BDA0010608064B002206491A7041
:1003680001230B7005490A70054A1370054B0222D8
:100378001A70704720030020210300201E0300206C
:100388001F0300201D030020064B002206491A7097
:1003980001230B7005490A70054A1370054B0222A8
:1003A8001A7070472503002026030020230300202D
:1003B8002403002022030020064B002206491A705D
:1003C80001230B7005490A70054A1370054B022278
:1003D8001A7070472A0300202B03002028030020EE
:1003E8002903002027030020064B002206491A7023
:1003F80001230B7005490A70054A1370054B022248
:100408001A7070472F030020300300202D030020AE
:100418002E0300202C030020064B002206491A70E8
:1004280001230B7005490A70054A1370054B022217
:100438001A7070473403002035030020320300206F
:100448003303002031030020704710B50446FFF73E
:1004580020FE204610BDF8B50F4600F10806051D20
:10046800002416F8011D38460A2200F0ACF8AE4206
:10047800044407D0002CF4D038462E2100F05EF852
:100488000444EEE72046F8BD10B59DF8084044EA5C
:10049800032343EA024242EA0161042341600375EF
:1004A80010BD000037B50446044D05609DF818508E
:1004B8000095FFF7E9FF204603B030BDE80E0A08B3
:1004C800064B002206491A7001230B7005490A7071
:1004D800054A1370054B02221A7070473903002031
:1004E8003A03002037030020380300203603002099
:1004F800F8B506460D468F180024BD420CD0336867
:1005080030469B6815F8011B9847002801DB044416
:10051800F3E7002C08BF04462046F8BD70B5054631
:100528000C46084649B100F0BEFC2B68024621463D
:100538002846BDE87040DB68184770BD03689B68B3
:10054800184738B50D210546FFF7F8FF0A2104467C
:100558002846FFF7F3FF204438BD38B50546FFF7B6
:10056800DDFF04462846FFF7ECFF204438BD012A8A
:1005780098BF0A2230B50B468BB000218DF82410A5
:100588000DF12304B3FBF2F505FB1233DBB2092BA3
:1005980094BF30333733DBB2214604F801392B4698
:1005A800002DEFD1FFF7BAFF0BB030BD10B52AB957
:1005B800BDE810400368C9B29B681847D2B2BDE8CD
:1005C8001040FFF7D4BFFFF7F1BF0000064B002231
:1005D80006491A7001230B7005490A70054A137001
:1005E800054B02221A7070473E0300203F0300208B
:1005F8003C0300203D0300203B030020704710B55A
:100608000446FFF746FD204610BD000010B504461D
:10061800044B017103600846FFF70EFE0023A36038
:10062800204610BD000F0A08064B002206491A7022
:1006380001230B7005490A70054A1370054B022205
:100648001A70704743030020440300204103002030
:100658004203002040030020064B002206491A707E
:1006680001230B7005490A70054A1370054B0222D5
:100678001A707047480300204903002046030020F1
:10068800470300204503002010B504460068FFF723
:1006980053FE204610BD10B50446006808B1FFF7A8
:1006A8004BFE00232360A360636010BD38B5044689
:1006B8000D4600680131FFF747FE10B184E82100BC
:1006C800012038BD10B50368044613B143688B4256
:1006D80007D22046FFF7EAFF20B1A3680BB92268CA
:1006E8001370012010BD70B50E461146044615461C
:1006F800FFF7E8FF18B92046FFF7CDFF04E0A56033
:100708002068314600F0C7FB204670BD38B500238D
:10071800044603604360836003730D4639B108469D
:1007280000F0C1FB294602462046FFF7DCFF2046C1
:1007380038BD884210B50B46044607D0096819B180
:100748009A68FFF7D0FF01E0FFF7A5FF204610BD2C
:1007580010B5044600230360436083600373FFF70A
:10076800E8FF204610BD38B505460C4641B108469D
:1007780000F099FB214602462846FFF7B4FF01E046
:10078800FFF789FF284638BD10B5044600238AB014
:100798000360436083600373084601A900F0A4F96D
:1007A800204601A9FFF7DFFF20460AB010BD70B54B
:1007B800044683680E4609B9002070BD62B1D51899
:1007C8002946FFF77FFF0028F6D02068A368314646
:1007D800184400F060FBA560012070BD0B4610B501
:1007E8009A6809680446FFF7E2FF10B92046FFF748
:1007F80052FF204610BD0000074B0020074A187022
:1008080001231370064A1070064A1370064B022221
:100818001A70FFF781BD00BF4D0300204E03002072
:100828004B0300204C0300204A030020064B002203
:1008380006491A7001230B7005490A70054A13709E
:10084800054B02221A707047520300205303002000
:1008580050030020510300204F030020024B1A6868
:10086800024B1A60704700BF0003002054030020A9
:10087800064B002206491A7001230B7005490A70BD
:10088800054A1370054B02221A7070475B0300205B
:100898005C030020590300205A030020580300205D
:1008A800064B002206491A7001230B7005490A708D
:1008B800054A1370054B02221A7070476003002026
:1008C800610300205E0300205F0300205D03002019
:1008D800704741747047007CFFF7DEBC007CFFF76F
:1008E800DBBC007CFFF7E8BC007CFFF7DDBC007CCC
:1008F800FFF7EABC10B50446FFF7CBFB204610BD56
:1009080070B5457C04460E4625B9007CFFF7E4FC2B
:10091800002805DD207C3146BDE87040FFF7B4BCF7
:10092800284670BD10B50446002060604FF47A7008
:10093800A0600648217420600120607408461146B2
:100948001A46FFF799FC204610BD00BF400F0A0861
:10095800007C0023FFF7D8BC0022FFF7F9BF000096
:1009680038B50C4D296811F0010411D12846FFF75C
:1009780092FB68B12146084A084B0948FFF7D2FFA5
:100988002846FFF78DFB06480649074A00F098F904
:10099800034838BDFC030020000400207803002031
:1009A80064030020D9080A08040300200174704772
:1009B80070470020FFF750BC0120FFF74DBCFFF740
:1009C80093BC08B5FFF740FC08BD38B505460C4692
:1009D800FFF78AFC002801DC287C18B12046FFF7C5
:1009E80043FC012038BDFFF787BC10B50446FFF76C
:1009F80050FB204610BD0000002242604FF47A727E
:100A08008260024A0260012202747047700F0A086D
:100A180010B50A4C2368DB070ED42046FFF73BFBD2
:100A280050B10748FFF7E8FF2046FFF739FB0448B5
:100A38000449054A00F044F9014810BD9804002013
:100A480084040020B9090A08040300207047002024
:100A580001460246FFF768BC0348044B0449054AAF
:100A6800036000F02DB900BF9C040020A00F0A0805
:100A7800550A0A080403002010B5044600F013FACA
:100A8800013823182046984206D20278197800F8CF
:100A9800011B03F80129F6E710BD70B50C46911E3D
:100AA80022291FD82546294670B1B0FBF2F602FB71
:100AB8001600C1B2092805F8011B94BF303157311F
:100AC80005F8011C3046EEE7E218914203D23022C5
:100AD80001F8012BF8E7002320460B70FFF7CCFF45
:100AE800204670BD002070BD38B5031E0C46154663
:100AF80009DA2D22B3F1004F0A7008BF18462A46BA
:100B080018BF584201310123FFF7C7FF204638BDFF
:100B180008B50F4B33B1FFF77BFF03681B69984794
:100B280000280DDC0B4B33B1FFF71AFF03681B6974
:100B38009847002807DC084B43B1AFF3008008BD95
:100B4800AFF30080EEE7AFF30080F4E708BD00BF25
:100B580000000000000000000000000008B5FFF7DA
:100B6800D7FFFFF759FB014B186008BDA804002008
:100B78000248034A0349121A00F07AB900400240B9
:100B88000440024000100A0838B5094C094D236892
:100B98005A1B53425341084A137013B9FFF7E8FF31
:100BA8002560064B1BB1FFF72FFBAFF3008038BD64
:100BB800004002401E1C279AA004002000000000EC
:100BC800064B002206491A7001230B7005490A706A
:100BD800054A1370054B02221A707047A4040020BE
:100BE800A5040020A2040020A3040020A1040020E2
:100BF800064B002206491A7001230B7005490A703A
:100C0800054A1370054B02221A707047AF04002082
:100C1800B0040020AD040020AE040020AC04002085
:100C280013B5084C002100910A460B462046FFF7F1
:100C380039FC20460449054A02B0BDE8104000F0DE
:100C48003FB800BFB404002051040A080403002080
:100C5800F8B5124B00211970114B01241C70114B6F
:100C6800114F1970114B02221C70114B114E124D6D
:100C780038461A70FFF7CAFC3846104F2A463146E4
:100C880000F01EF821463846FFF7C0FC38463146CA
:100C98002A46BDE8F84000F013B800BFCF04002092
:100CA800D0040020CD040020D4040020CE0400206D
:100CB800CC04002005060A0804030020E0040020F4
:100CC80003460846194600F0C5B80000244B1A68C8
:100CD800D0075CBF01221A60224B1A68D1075CBF9B
:100CE80001221A60204B1A68D2075CBF01221A60E1
:100CF8001E4B1A68D0075CBF01221A601C4B1A6889
:100D0800D1075CBF01221A601A4B1A68D2075CBF70
:100D180001221A60184B1A68D0075CBF01221A60BA
:100D2800164B1A68D1075CBF01221A60144B1A6867
:100D3800D2075CBF01221A60124B1A68D0075CBF49
:100D480001221A60104B1A68D1075CBF01221A6091
:100D58000E4B1A68D2075CBF01221A60704700BFA9
:100D68001805002014050020100500200C0500209F
:100D7800080500200405002000050020FC040020D0
:100D8800F8040020F4040020F0040020EC04002003
:100D9800244B1A68D0075CBF01221A60224B1A68DC
:100DA800D1075CBF01221A60204B1A68D2075CBFCA
:100DB80001221A601E4B1A68D0075CBF01221A6014
:100DC8001C4B1A68D1075CBF01221A601A4B1A68BB
:100DD800D2075CBF01221A60184B1A68D0075CBFA3
:100DE80001221A60164B1A68D1075CBF01221A60EB
:100DF800144B1A68D2075CBF01221A60124B1A689A
:100E0800D0075CBF01221A60104B1A68D1075CBF7B
:100E180001221A600E4B1A68D2075CBF01221A60C1
:100E2800704700BF48050020440500204005002009
:100E38003C0500203805002034050020300500203E
:100E48002C0500202805002024050020200500206E
:100E58001C05002038B5054604480C46134620B149
:100E6800022029462246AFF3008038BD000000006A
:100E780010B5431E0A44914204D011F8014B03F8FF
:100E8800014FF8E710BD03460244934202D003F82D
:100E9800011BFAE77047034611F8012B03F8012BF1
:100EA800002AF9D17047034613F8012B002AFBD119
:100EB800181A0138704700001D000A085D000A086A
:100EC80089000A088D000A08000000003000200090
:100ED8003100320033000000000000000000000074
:100EE8005F040A0851040A0853040A0800000000B5
:100EF800000000000000000005060A0807060A08AE
:100F08005A00252B3033643A253032750025592D87
:100F1800256D2D25645425483A254D3A2553257AC3
:100F28000061736374696D650000000000000000D3
:100F38000000000000000000D9080A08FD080A089F
:100F480009090A08F9040A08E5080A08F1080A085C
:100F5800EB080A08F7080A08DB080A08DF080A0885
:100F68000000000000000000B9090A08F3090A0897
:100F7800D3090A08F9040A08CB090A08BB090A08B0
:100F8800C1090A08EF090A08C7090A08B5090A08C1
:100F98000000000000000000570A0A085D010A0866
:100FA800C5010A0861030A0891030A08C1030A086F
:100FB800F1030A0821040A08C9040A08D5050A0821
:100FC80031060A0861060A0801080A0835080A08ED
:100FD80065080A0879080A08A9080A08610A0A08B7
:100FE800C90B0A08F90B0A08290C0A08590C0A083F
:080FF800D50C0A08990D0A0846
:0410000000000000EC
:04100400290F0A089E
:10100800FFFFFFFF00000102030405060708090AA5
:101018000B0C0D0E0F101112131415161718191AA0
:081028001B1C1D1E1F202800E7
:0410300078563412A8
:04000005080A0018CD
:00000001FF
